S01100004C3132303234504F562E73726563D9
S11300009EC12EC554C5B6C1B5C1B4C1B3C1B2C138
S1130010B1C1B0C1AFC1AEC1ADC1ACC1ABC1AAC168
S1130020A9C1A8C1A7C1A6C1A5C119C43CC45AC4C9
S113003078C496C4B3C4B4C4C1C4DBC4FCC43E51C4
S113004049453E00000000427F400000000042613C
S11300505149460000002141454B3100000018146D
S1130060127F1000000027454545390000003C4A36
S113007049493000000001710905030000003649B8
S1130080494936000000064949291E0000007E1136
S113009011117E0000007F494949360000003E41AD
S11300A04141220000007F4141413E0000007F4960
S11300B04949410000007F090909010000003E414F
S11300C049497A0000007F0808087F0000000041C9
S11300D07F41000000002040413F010000007F08F4
S11300E01422410000007F404040400000007F0295
S11300F00C027F0000007F0408107F0000003E41D6
S113010041413E0000007F090909060000003E410C
S113011051215E0000007F0919294600000046496C
S113012049493100000001017F01010000003F4006
S113013040403F0000001F2040201F0000003F40BF
S113014038403F00000063140814630000000708EF
S11301507008070000006151494543000000808C8D
S113016098A4AFB9C3CBD2D8DCDFE0DFDCD8D2CBE4
S1130170C3B9AFA4988C8074685C51473D352E2870
S11301802421202124282E353D47515C6874FF0F1B
S1130190200020002000200020007F008003000CAD
S11301A0000000000000000000006000F000F80102
S11301B0F803F007F00FF007F803F801F00060000F
S11301C00000FE07010801080108010801080208EF
S11301D00008000800040000000000000000000007
S11301E0FF0F600090008800040102010102000278
S11301F000040004000800080000FF0F2000200095
S11302002000200020007F008003000C000000007C
S113021000003000480094007401E802E804E80299
S11302207401940048003000000000000000FE0744
S11302300108010801080108010802080008000873
S1130240000400000000000000000000FF0F600038
S1130250900088000401020101020002000400046D
S1130260000800080000FF0F2000200020002000EC
S113027020007F008003000C0000180024004200CE
S11302808200340134023401820042002400180048
S113029000000000000000000000FE070108010843
S11302A00108010801080208000800080004000011
S11302B00000000000000000FF0F600090008800B4
S11302C00401020101020002000400040008000805
S11302D00000FF0F200020002000200020007F00ED
S11302E08003000C0C001200210041008200020176
S11302F082004100210012000C00000000000000F8
S1130300000000000000FE070108010801080108C0
S113031001080208000800080004000000000000B2
S113032000000000FF0F600090008800040102013B
S11303300102000200040004000800080000112467
S11303401FBECFE5D1E0DEBFCDBF10E0A0E6B0E038
S1130350EEE3FFE002C005900D92A83DB107D9F786
S113036020E0A8EDB0E001C01D92A13FB207E1F783
S113037049D4E3C545CE80B38695869591E0892717
S1130380817008958131910550F08A31910538F0DA
S1130390469796958795969587950197F1F70895D1
S11303A08EB582608EBD1DBC1CBC089593FF04C035
S11303B022B3216022BB03C022B32E7F22BB92FF53
S11303C004C022B3226022BB03C022B32D7F22BB10
S11303D091FF04C022B3206122BB03C022B32F7E4D
S11303E022BB90FF04C022B3206222BB03C022B30D
S11303F02F7D22BB87FF04C022B3206422BB03C02D
S113040022B32F7B22BB86FF04C028B3216028BB04
S113041003C028B32E7F28BB85FF04C028B3226005
S113042028BB03C028B32D7F28BB84FF04C028B396
S1130430246028BB03C028B32B7F28BB83FF04C0E0
S113044028B3286028BB03C028B3277F28BB82FFBA
S113045004C028B3206128BB03C028B32F7E28BB67
S113046081FF04C02BB321602BBB03C02BB32E7FB1
S11304702BBB80FF04C08BB382608BBB08958BB30E
S11304808D7F8BBB0895CF93DF93D82FC0E019C025
S1130490ED2FF0E0EE0FFF1FEE0FFF1FEE0FFF1F1B
S11304A0EC0FF11DE25CFF4F849190E07FDF8091BF
S11304B0E2009091E300A091E400B091E50062DFD6
S11304C0CF5FC83028F3DF91CF91089590ED980F56
S11304D09A3018F4892FD7DF08959FEB980F9A313B
S11304E018F48753D0DF0895803221F486EA8A9580
S11304F0F1F700C00895CF93DF93EC010BC0219670
S1130500E5DF8091E2009091E300A091E400B091D6
S1130510E50038DF88818111F2CFDF91CF91089512
S11305201F93CF93DF932091DA00EC01C20FD11D0A
S1130530888181110CC01092DA008091E2009091C0
S1130540E300A091E400B091E5001CDF22C02F5F1E
S11305502093DA0010E01AC0803451F48091E20054
S11305609091E300A091E400B091E5000BDF0AC094
S1130570ADDF8091E2009091E300A091E400B0919E
S1130580E50000DF1F5F1F3021F021968881811173
S1130590E3CFDF91CF911F9108950F931F93CF93D2
S11305A0DF938C0168EE73E0F1D3D62F862F6BDFD7
S11305B08091E2009091E300A091E400B091E50005
S11305C0E1DEC80164E670E0E1D3C62F8D2F880F09
S11305D0880FD80F8D2F880F962F981B892F53DFE4
S11305E08091E2009091E300A091E400B091E500D5
S11305F0C9DEC8016AE070E0C9D3D82F8C2F880FF8
S1130600880FC80F8C2F880F681B862F3CDF8091C2
S1130610E2009091E300A091E400B091E500B2DE25
S11306208D2F31DF8091E2009091E300A091E400EE
S1130630B091E500A7DEDF91CF911F910F9108954E
S11306400F931F93CF93DF938C01D62FC0E013C079
S1130650EC2FF0E0EE0FFF1FE00FF11F8591949156
S1130660A5DE8091E2009091E300A091E400B091B6
S1130670E50088DECF5FCD1758F3DF91CF911F914E
S11306800F910895EF92FF920F931F93CF93DF93EF
S1130690F82EE12C5CC06FDE81115DC0C0E0D0E0BB
S11306A000E010E03CC08091D8009091D9008C0FFC
S11306B09D1F60E370E07ED3FC01E25AFE4FE4919B
S11306C0E13860F181E090E00C2E02C0880F991FA0
S11306D00A94E2F7082B192BFF2001F1C80166DE0A
S11306E020E030E003C000002F5F3F4FA90160E02D
S11306F070E08091E2009091E300A091E400B09159
S1130700E500B695A79597958795B695A79597957E
S11307108795481759076A077B0728F32196CC3039
S1130720D1050CF4C0CFF11002C0C8013FDE8091A6
S1130730D8009091D90001969093D9008093D80065
S1130740C09724F01092D9001092D800E39489EF56
S11307508E1508F0A0CFDF91CF911F910F91FF90DC
S1130760EF90089588B1806888B986B1826086B9AF
S11307708AB383608ABB87B38F6387BB81B3836784
S113078081BB88B3806288BB82B3846082BB8BB731
S1130790806C8BBF85B7886085BF85B78B7F85BF2D
S11307A07894FEDD85B7806585BF0895CF93DF9388
S11307B0C0E0D0E03EC0DFDD811140C08091660022
S11307C090916700F3DD809164009091650001973A
S11307D0C1F480916600909167009C012227307ECD
S11307E02115304E39F48FEF9FEF9093650080937D
S11307F064001EC0880F991F909367008093660061
S113080017C080916600909167009C012770332780
S11308102730310539F481E090E0909365008093AE
S1130820640006C096958795909367008093660050
S11308302196CC3F81E0D80708F4BDCFDF91CF915A
S11308400895CF93DF93E0916C008E2F90E08A306F
S1130850910508F0F7C0FC01EB5EFF4F099483EDAE
S113086090E049DE8091EB009091EC0096DE80915F
S1130870E2009091E300A091E400B091E50082DDF4
S11308808091E2009091E300A091E400B091E50032
S113089079DD8091E2009091E300A091E400B091B1
S11308A0E50070DDD7C08DE690E025DE4091E200E2
S11308B05091E3006091E4007091E500CA01880F53
S11308C0991F840F951F9C01220F331F2295329587
S11308D0307F3227207F3227820F931F840F951F8A
S11308E051DDB8C089E890E006DE4091E200509105
S11308F0E3006091E4007091E500CA01880F991F3C
S1130900840F951F9C01220F331F22953295307F4F
S11309103227207F3227820F931F840F951F32DDE9
S113092099C087E990E0FCDD4091E2005091E3003A
S11309306091E4007091E500CA01880F991F840F4B
S1130940951F9C01220F331F22953295307F322749
S1130950207F3227820F931F840F951F13DD7AC0E7
S11309608091DD00813059F028F0823069F08330C5
S113097081F070C066E382ED92E062DE6BC066E3F4
S113098086E692E05DDE66C066E38AEF91E058DEBB
S113099061C066E38EE891E053DE5CC007DF5AC0B5
S11309A081E070DE57C085D201DD8091DB008111CA
S11309B0CBE9E1DC81114EC0CF5F01C0C0E0CA3990
S11309C090F348C08CB59DB5F1DC8091E200909124
S11309D0E300A091E400B091E500D4DC8091DB0059
S11309E0882311F0C8EED3E0C6DC811133C0219610
S11309F002C0C0E0D0E0C83E83E0D80718F32AC0A4
S1130A008CB59DB564E670E0C1D1CB01CFDC80919B
S1130A10E2009091E300A091E400B091E500B2DC23
S1130A208091DB00882311F0C8EED3E0A4DC8111AF
S1130A3011C0219602C0C0E0D0E0C83E83E0D807D0
S1130A40F8F208C0789488B38F7D88BB81E08093E6
S1130A50DC00889580E090E0A9DCDF91CF910895D7
S1130A601F920F920FB60F9211248F939F93AF93FF
S1130A70BF9385B78F7D85BF80E593ECA0E0B0E0A0
S1130A808093680090936900A0936A00B0936B0010
S1130A9088B3806288BB85B7806285BFBF91AF9100
S1130AA09F918F910F900FBE0F901F9018951F92DA
S1130AB00F920FB60F9211240F931F932F933F930E
S1130AC04F935F936F937F938F939F93AF93BF9352
S1130AD0CF93DF93EF93FF9385B78F7D85BF80E539
S1130AE093ECA0E0B0E08093680090936900A09339
S1130AF06A00B0936B00CCB5DDB5D093F000C09321
S1130B00EF008091ED009091EE00C817D90740F0F6
S1130B108091ED009091EE008E01081B190B07C027
S1130B208091ED009091EE008E01081B190BC80115
S1130B306CE070E02BD1CB01A0E0B0E08093E70043
S1130B409093E800A093E900B093EA008091E70055
S1130B509091E800A091E900B091EA00B695A795BC
S1130B6097958795B695A795979587958093E20075
S1130B709093E300A093E400B093E5002091E70094
S1130B803091E8004091E9005091EA0060EC77E28E
S1130B9089E090E022D13093EC002093EB0081E0D7
S1130BA08093DB00D093EE00C093ED008091DE00D3
S1130BB09091DF00A091E000B091E100800F911FBF
S1130BC0A11DB11D8093DE009093DF00A093E0008F
S1130BD0B093E10085B7806285BFFF91EF91DF910B
S1130BE0CF91BF91AF919F918F917F916F915F91C1
S1130BF04F913F912F911F910F910F900FBE0F9026
S1130C001F901895AFDD80E090E0D0DB7894809160
S1130C10DC0081112AC0AFDB8130C1F580916C000A
S1130C208F5F80936C0080916C006AE0A3D09093F6
S1130C306C0090916C0023E030E0A90102C0440FE5
S1130C40551F9A95E2F7CA01B1DB5FE58AEE90E0A1
S1130C50515080409040E1F700C0000080E090E0F7
S1130C60A5DB89DB8130D1F211C08FEF9FE09EDBE1
S1130C701092DC002FE54AEE50E0215040405040F5
S1130C80E1F700C0000080E090E090DB8091680014
S1130C9090916900A0916A00B0916B00AC01BD0114
S1130CA041505109610971094093680050936900EA
S1130CB060936A0070936B00892B8A2B8B2B11F540
S1130CC085B7806285BF8AEA90E070DB88B38F7D48
S1130CD088BB83ED90E30197F1F700C0000080E545
S1130CE093ECA0E0B0E08093680090936900A09337
S1130CF06A00B0936B0081E08093DC0080E090E0B8
S1130D0055DB88958091680090916900A0916A00F4
S1130D10B0916B008135934CA105B10560F080E57D
S1130D2093ECA0E0B0E08093680090936900A093F6
S1130D306A00B0936B008091DB00882309F466CFCE
S1130D401092DB007EDD8091E6008A3069F48091A8
S1130D50DD008F5F8093DD008091DD00843011F42D
S1130D601092DD001092E6008091E6008F5F809380
S1130D70E6004CCF991B79E004C0991F961708F040
S1130D80961B881F7A95C9F780950895AA1BBB1BEB
S1130D9051E107C0AA1FBB1FA617B70710F0A61B77
S1130DA0B70B881F991F5A95A9F780959095BC0198
S1130DB0CD01089597FB072E16F4009406D077FD15
S1130DC008D0E4DF07FC05D03EF4909581959F4F51
S1130DD00895709561957F4F0895A1E21A2EAA1B7C
S1130DE0BB1BFD010DC0AA1FBB1FEE1FFF1FA217D7
S1130DF0B307E407F50720F0A21BB30BE40BF50BD4
S1130E00661F771F881F991F1A9469F7609570955C
S1130E10809590959B01AC01BD01CF0108958F92FF
S1130E209F92AF92BF92CF92DF92EF92FF92CF93B5
S1130E30DF93EC01688179818A819B816115710559
S1130E408105910521F464E279ED8BE597E02DE1CC
S1130E5033EF41E050E055D049015A0127EA31E42B
S1130E6040E050E035D06B017C012CEE34EF4FEFC5
S1130E705FEFC501B4012CD0DC01CB018C0D9D1DAD
S1130E80AE1DBF1DB7FF03C00197A109B0488883F9
S1130E909983AA83BB839F77DF91CF91FF90EF90D3
S1130EA0DF90CF90BF90AF909F908F900895B7DF61
S1130EB0089580E690E0B3DF0895A0E0B0E0809369
S1130EC0600090936100A0936200B0936300089562
S1130ED0EE27FF27AA27BB2708C0A20FB31FE41FD2
S1130EE0F51F220F331F441F551F9695879577953D
S1130EF0679598F37040A9F7009799F7BD01CF0162
S1130F000895052E97FB16F400940FD057FD05D0D5
S1130F1064DF07FC02D046F408C050954095309534
S1130F2021953F4F4F4F5F4F089590958095709551
S1110F3061957F4F8F4F9F4F0895F894FFCF28
S1130F3E010000000100070050C300000757454C94
S1130F4E434F4D4520544F204C415945524F4E4529
S1130F5E203230323420200000414E445249544F46
S1130F6E4C494F4E200000202020202020202020FD
S1130F7E202020202020202020204841434B205494
S1130F8E484520504C414E45542E2E2E20202020D4
S1130F9E5041434B2054484520484C414E45543F04
S10B0FAE20000052504D000028
S9030000FC
